:020000040800F2
:10000000F8EF0020DD030008B399000831760008FE
:10001000B1990008493200081BD200080000000016
:100020000000000000000000000000001D030008A8
:10003000493D0008000000007903000881A1000884
:10004000F7030008F7030008F7030008F7030008A8
:10005000F7030008F70300084B3D0008F70300080A
:10006000F7030008513D0008573D0008F70300085A
:10007000F7030008F7030008F7030008F703000878
:10008000F7030008F7030008F7030008F703000868
:100090004D320008F7030008F70300085D3D000833
:1000A000F7030008F7030008F7030008F703000848
:1000B000F7030008F7030008F7030008F703000838
:1000C000F7030008F7030008F7030008F703000828
:1000D000F70300086DB60008F70300082DB7000805
:1000E000F7030008F7030008F7030008F703000808
:1000F000F7030008F7030008F7030008213A000897
:10010000F7030008F7030008F7030008F7030008E7
:10011000F7030008F7030008F7030008F7030008D7
:10012000F7030008793A0008F7030008F70300080E
:10013000F7030008F7030008F7030008F7030008B7
:1001400059320008F7030008F7030008E99B00088C
:10015000F7030008853A0008913A00080DB8000836
:10016000F7030008F7030008F7030008F703000887
:10017000F7030008F7030008F70300080000000079
:10018000F7030008F703000800F002F800F0B6F8E3
:100190000AA090E8000C82448344AAF10107DA45E2
:1001A00001D100F0ABF8AFF2090EBAE80F0013F07E
:1001B000010F18BFFB1A43F001031847C04A0100A2
:1001C000E04A01000A444FF0000C10F8013B13F024
:1001D000070408BF10F8014B1D1108BF10F8015BA0
:1001E000641E05D010F8016B641E01F8016BF9D193
:1001F00013F0080F1EBF10F8014BAD1C0C1B09D1EA
:100200006D1E58BF01F801CBFAD505E014F8016B5B
:1002100001F8016B6D1EF9D59142D6D370470000ED
:100220000023002400250026103A28BF78C1FBD8FF
:10023000520728BF30C148BF0B6070476E2901F0DC
:100240002782702901F07985662913F0CD8265290E
:1002500013F0CA82672913F0C782612913F0C6829E
:1002600003681B0A28BF41F08001692900F00E874E
:10027000642900F00B87752900F008876F2901F0C9
:100280000685782901F04585E92901F0A184E42952
:1002900001F09E84F52901F09B84EF2901F003858C
:1002A000F82901F044850368DB0928BF41F080018B
:1002B000632901F09987732901F09E87E32901F0F2
:1002C000A987F32901F0AE87002070471FB513F00E
:1002D000D3F99DE8030001F0DFF801F03DFD0400D3
:1002E0000020002111F044FF401C6060002000212C
:1002F00011F028FFE0601FBD10B510BD02F030F80E
:100300001146FFF7E3FF0FF00BFC02F057F803B4C0
:10031000FFF7F2FF03BC02F0CFF800002C4B196886
:100320000868B0E8F04F80F30988BFF36F8F4FF093
:10033000000080F311887047000000000848006842
:10034000006880F308884FF0000080F3148862B6DC
:1003500061B6BFF34F8FBFF36F8F00DF00BF00BFE9
:1003600008ED00E0DFF80C00016841F47001016065
:10037000704700BF88ED00E0EFF30980BFF36F8F97
:10038000134B1A681EF0100F08BF20ED108A20E9E9
:10039000F04F106009B44FF0500080F31188BFF3A4
:1003A0004F8FBFF36F8F11F087F84FF0000080F38D
:1003B000118809BC19680868B0E8F04F1EF0100FEA
:1003C00008BFB0EC108A80F30988BFF36F8F7047C5
:1003D000AC000020EFF3058070470000094880471B
:1003E00009480047FEE7FEE7FEE7FEE7FEE7FEE717
:1003F000FEE7FEE7FEE7FEE704480549054A064B2F
:100400007047000045A2000889010008F8AF0020ED
:10041000F8EF0020F8CF0020F8CF00209FED1A1A47
:10042000F5EE000A40EE010ABDEEE00AF5EEC00A64
:1004300010EE100AF1EE10FA38BF401E00EE100A5E
:100440001349F7EE001AB8EEC00A30EEC00ADFED2D
:100450000F0A20EE200AFCEEC00A10EE900AC0F34C
:10046000080000EE900A01EB8000F8EE600A90EDC3
:10047000011A70EE600A90ED000A71EEE01A21EEAA
:10048000800A00EE810A704783F9223E0000004492
:10049000E8410108DFED190AB5EEC00A60EE200A56
:1004A000BDEEE01A11EE100AF1EE10FA38BF401E50
:1004B00000EE100A1349F7EE001AB8EEC00A30EE4B
:1004C000C00ADFED0F0A60EE200ABCEEE00A10EE73
:1004D000100AC0F3080000EE100A01EB8000B8EE2D
:1004E000400A90ED011A70EEC00A90ED000A71EE1C
:1004F000E01A21EE800A00EE810A704783F9223E5D
:1005000000000044E841010870B405880E88446882
:10051000D1F804C05368B54208D140884988884260
:1005200001BF11888D425188884203D070BC6FF0A2
:100530000200704705FB00F1880827D094ED001AEF
:10054000DCED000A94ED010ADCED011A31EE201A0F
:10055000D4ED020A70EE211A9CED020A83ED001A16
:10056000C3ED011A94ED031ADCED031A30EE800A94
:10057000401E71EE210A83ED020A04F11004C3ED5E
:10058000030A03F110030CF1100CD7D111F0030092
:1005900030D0B0F1004F30D200282BDD211F1B1FBF
:1005A000ACF1040210F0010F0AD091ED010AD2ED76
:1005B000010A091D121D30EE200A83ED010A1B1DE0
:1005C000400817D091ED010AD2ED010A401E30EE2D
:1005D000200A83ED010A91ED020AD2ED020A01F12F
:1005E000080102F1080230EE200A83ED020A03F14D
:1005F0000803E7D170BC00207047B4EC010A401E2C
:10060000FCEC010A30EE200AA3EC010AF5D1F1E777
:1006100001804280436070472DE9F34F84B0049815
:1006200040680090486801900498B0F800E0458860
:10063000DFEDFE0A00200290B0EE600AAE4506D162
:1006400008884988884204BF7146864504D06FF007
:10065000020006B0BDE8F08F01985FEA010C18BFF8
:10066000B7EE001A3DD000BFBEEB0C0117D0B1F1C0
:10067000004F80F01F82002911DD021F11F0010FD1
:100680001CBFC2ED010A121D4B1006D0C2ED010ABB
:10069000C2ED020A08325B1EF8D100EB8100BCF10A
:1006A0000102A0EC011A19D0B2F1004F80F00882CB
:1006B000002A13DD031F12F0010F1CBFC3ED010A56
:1006C0001B1D511008D000BFC3ED010AC3ED020A83
:1006D000491E03F10803F7D100EB8200BCF1010CC5
:1006E000C2D14FF000080395002D14BFB0EE602A70
:1006F000002000F0BF8100BF009908FB05F001EB6E
:10070000800B0199DBED002A01EB80000346F0EE3F
:10071000421AC64552D9AEEB0802ABEB850112F086
:10072000010F17D001EB850191ED000AB5EEC00A6B
:10073000F1EE10FA07DDB4EEE10AF1EE10FA09DD90
:10074000F0EE401A06E0B1EE400AF4EEC01AF1EE07
:1007500010FAF5D3521031D001EB850C9CED000A54
:10076000B5EEC00AF1EE10FA05DDB4EEE10AF1EEE5
:1007700010FA09DD06E0B1EE400AF4EEC01AF1EE1F
:1007800010FA01D2F0EE401A01EBC50191ED000A1A
:10079000B5EEC00AF1EE10FA05DDB4EEE10AF1EEB5
:1007A00010FA09DD06E0B1EE400AF4EEC01AF1EEEF
:1007B00010FA01D2F0EE401A521ECDD1F5EEC01A59
:1007C000F1EE10FA00F07381F5EEC02A0126F1EE89
:1007D00010FA0099D4BFB1EE620AB0EE620AB4EE2C
:1007E000610AF1EE10FA1CBFAEEB0802B2F1010C87
:1007F00047D005FB08F201EB820292ED001A00BF20
:10080000B0EE410A05FB06F4B5EEC00A00EB840425
:10081000F1EE10FACCBFF0EE400AF1EE400AF4EE31
:10082000610AF1EE10FA28D1B5EB080C11D0BCF139
:10083000004F7DD2BCF1000F0BDD00BF92ED000A2E
:10084000D1ED000ABCF1010CE2EC010AA1EC010AB5
:10085000F4D129000ED0B1F1004F6AD2002909DD90
:1008600094ED000AD0ED000A491EE4EC010AA0EC68
:10087000010AF5D1012002900BE0761CBCF1010CBD
:10088000BED10298012804D0F5EEC02AF1EE10FA8C
:100890007ED09BED000AB5EB08009A465946064605
:1008A00022D0B0F1004F74D200281DDD091F10F0D6
:1008B000010F06D0F0EE400A80EEA01A81ED011A79
:1008C000091D401010D000BFD1ED010A401E80EE7E
:1008D000801A81ED011A91ED021AC1EE000AC1EDF4
:1008E000020A01F10801EFD1280026D0B0F1004F33
:1008F0007ED2002821DDAAF1040110F0010F06D0FC
:10090000D1ED010A80EE801A81ED011A091D401017
:1009100013D000BFD1ED010A401E80EE801A81ED98
:10092000011AD1ED020A80EE801A81ED021A01E06F
:10093000CBE0D6E001F10801ECD1DDE900124FF087
:1009400000095FEA0E0773D0C14504BF01EB8601C1
:1009500002EB850274D091ED000ADC46504633006C
:1009600035D01C46B6F1004F7ED2002C2FDD0B1F78
:10097000ABF1040C16F0010F0FD0F0EE400ADCEDE5
:10098000011AB0EE601A00EEE11A83ED011A01E0DF
:100990008DE0B1E01B1D0CF1040C741015D000BFEC
:1009A000D3ED010A9CED011A40EE410AC3ED010AA4
:1009B000D3ED020A9CED021A0CF1080C40EE410A3C
:1009C000C3ED020A0833641EEAD101EB86012B0055
:1009D00036D0B3F1004F72D2002B31DDA2F1040CFE
:1009E000AAF1040013F0010F0CD0DCED010A00E0C5
:1009F0008BE090ED011A001D40EE410ACCED010A9A
:100A00000CF1040C5C1019D0DCED010A90ED011A18
:100A100040EE410ACCED010ADCED020A90ED021A2B
:100A2000083040EE410ACCED020A03E0000000006D
:100A30000DE005E0641E0CF1080CE5D102EB830229
:100A400001EB88017F1E09F101097FF47DAF009859
:100A500008F10108001D00900398401E03907FF4E8
:100A60004BAE0299012900E058E004BF06B0BDE892
:100A7000F08F00BFB5EEC00AF1EE10FA7FF4E9ADD9
:100A800004990EFB05F3002B4A684FF000010BD9C7
:100A900002EB810C9CED000AB5EEC00AF1EE10FAF3
:100AA00002D1491C8B42F3D88B427FF4D2AD6FF058
:100AB0000400CEE5E0EC010A491EFBD1EFE538E089
:100AC000E0EC010A521EFBD108E692ED000AD1EDDE
:100AD000000ABCF1010CE2EC010AA1EC010AF4D11C
:100AE000B7E694ED000AD0ED000A491EE4EC010AD5
:100AF000A0EC010AF5D1BDE6D1ED000A401E80EE62
:100B0000801AA1EC011AF7D1EEE6D3ED000A401EDF
:100B100080EE801AA3EC011AF7D10EE7BCEC011AA3
:100B2000D1ED000A5B1E40EE410AE1EC010AF5D16D
:100B30004DE7B0EC011AD2ED000A5B1E40EE410A0F
:100B4000E2EC010AF5D17BE72DE9F04F82B046686F
:100B500053680193058847884B88002000900888D7
:100B6000874201BFB2F800C06545528893421EBF5C
:100B70006FF0020002B0BDE8F08F9FED412A4FEA0E
:100B8000970EC7F3400B00BFDDE9000202EB800ABD
:100B90004A6898464FF00009B0EE420AB4465FEA50
:100BA0000E0025D092ED001ADCED001A02EB830254
:100BB000DCED010A01EE810A92ED001A02EB8302DC
:100BC000401ED2ED001A02EB830200EE810A9CED7A
:100BD000021ADCED030A00040CF1100C000C01EE0B
:100BE000210A92ED001A02EB830200EE810AD9D1AC
:100BF00017F0030026D0ACF10404A2EB830210F03E
:100C0000010F08D002EB8302D4ED010A92ED001A25
:100C1000241D00EE810A5FEA0B0013D002EB830C67
:100C2000D4ED010A9CED001A02EBC302401E00EE57
:100C3000810AD4ED020A92ED001A04F1080400EED4
:100C4000810AEBD109F10100AAEC010A1FFA80F92F
:100C5000486800EB8902A8F101001FFA80F8B8F19A
:100C6000000F99D1009806EB8706184480B20090D7
:100C7000681E05042D0C87D102B00020BDE8F08F5E
:100C80000000000070B405880E884468D1F804C0E4
:100C90005368B54208D140884988884201BF11880D
:100CA0008D425188884203D070BC6FF002007047BB
:100CB00005FB00F1880827D094ED001ADCED000A4E
:100CC00094ED010ADCED011A31EE601AD4ED020A4E
:100CD00070EE611A9CED020A83ED001AC3ED011A51
:100CE00094ED031ADCED031A30EEC00A401E71EEDB
:100CF000610A83ED020A04F11004C3ED030A03F153
:100D000010030CF1100CD7D111F0030030D0B0F16A
:100D1000004F30D200282BDD211F1B1FACF1040235
:100D200010F0010F0AD091ED010AD2ED010A091D60
:100D3000121D30EE600A83ED010A1B1D400817D01A
:100D400091ED010AD2ED010A401E30EE600A83EDFA
:100D5000010A91ED020AD2ED020A01F1080102F145
:100D6000080230EE600A83ED020A03F10803E7D1BE
:100D700070BC00207047B4EC010A401EFCEC010A74
:100D800030EE600AA3EC010AF5D1F1E72DE9F04F4E
:100D900002884768B0F802804888D1F8049082B091
:100DA0004FF0000A1646824207BF098888456FF057
:100DB000020002B018BFBDE8F08F4FEA980B02EBBB
:100DC00042000190C8F34000CDF8000009EB8A0111
:100DD000BBF1000F33D0019801EB820C01EB8004D2
:100DE0003B46E64601EBC2054FEA0B0093ED000AD5
:100DF000401E81ED000A93ED010A01EB02118CED1A
:100E0000000A93ED020A0CEB021C85ED000A93ED3B
:100E1000030A05EB021584ED000A04EB021403F14A
:100E20001003E3D10EEB820000EB820000EB8201A5
:100E3000ABF10100504307EB0B1701EB001118F069
:100E4000030C21D03B1FA1EB82011CF0010F06D047
:100E500093ED010A01EB82011B1D81ED000A009850
:100E600080B100BF93ED010A01EB820401EBC201E6
:100E700084ED000A93ED020A401E81ED000A03F1A1
:100E80000803EFD107EB8C070AF101001FFA80FA83
:100E9000701E0604360C99D102B00020BDE8F08F18
:100EA00070B5064600F0DCFA056806F10B0020F08C
:100EB0000704B4429CBF002070BD2B466A68BAB1DB
:100EC0001068A04210D304F1080188423CBF50686A
:100ED000586007D35168101941601168091B0160FF
:100EE00058601460101D70BD13465268002AE7D187
:100EF0002146284600F0BCFA0028DED170BD70B54E
:100F00000446051F00F0ACFA0068002C14BF4468CA
:100F100070BD002C18BFAC423CBF20466468F8D3BB
:100F200001680A18AA4218BF456003D12A6805461D
:100F30001144016028684119A1421CBF6C6070BD5A
:100F40006168696021680844286070BD53EA020C3A
:100F500000F069802DE9F04B4FF00006002B1FBF19
:100F6000B3FA83F503FA05F424FA05F65E4012BFDE
:100F70001643B2FA82F502FA05F4C5F120051EBF48
:100F800022FA05FC44EA0C04203556EA044C4FEAE8
:100F9000144418BF641C4FF000084FF00009904241
:100FA00071EB030C39D3002919BFB1FA81F701FAAB
:100FB00007F6B0FA80F700FA07F6C7F120071EBF60
:100FC00020FA07FC46EA0C062037B6FBF4FCA7EB38
:100FD0000507103F07F01F0BCBF120060CFA0BFBA7
:100FE0002CFA06F644BFB3460026202FA4BF5E4667
:100FF0004FF0000B5BEA060C08BF4FF0010B19EB3A
:101000000B09ABFB027C48EB0608C01B06FB02CCBD
:101010000BFB03CC71EB0C01C1E70B4602464146CA
:101020004846BDE8F08B13B54FF000004FF00001CB
:10103000AFF30080BDE81C40704700001CB50C46B3
:10104000064B7B4469460090204600F04AFD04466A
:101050000020694600F058FD20461CBDC30A000070
:101060000FB41CB5084B06AA7B446946009005984E
:1010700000F037FD04460020694600F045FD20469B
:101080001CBC5DF814FB00009D0A00002DE9F04136
:101090000646002410687529314616A510D000F0C8
:1010A00063FA002802DA404213A507E031688A0794
:1010B00001D512A502E0490704D511A5012401E0DC
:1010C00000F05BFA00210A2206F1240709E0B0FBD8
:1010D000F2FCB0FBF2F302FB1C00303078541846EF
:1010E000491C0028F3D123462A463046BDE8F0418A
:1010F00000F075BA000000002D0000002B00000079
:10110000200000002DE9F05F894604464FF0000AF8
:10111000DFF874B1FB44C0F820A02046E16888479E
:10112000002874D0252806D0D4E901219047206AF0
:10113000401C2062F1E700265F462046E1688847B0
:101140002028054607DB312D05D2781910F8200C30
:1011500008B10643F1E7B00701D526F00406C4F84C
:101160001CA00027C4F818A02A2D09D028460CF08E
:1011700047FB38B304EB8708303DC8F8185019E036
:1011800059F8041B204604EB87029161E168884707
:10119000012F054618D1E069002820DA26F0200644
:1011A0001DE0D8F8180000EB800005EB4000303857
:1011B000C8F818002046E168884705460CF020FB77
:1011C0000028EED1012F0AD02E2D08D12046E1684B
:1011D00088477F1C0546022F46F02006C4DBA06925
:1011E000002803DA404246F00106A061F00701D072
:1011F00026F010066C2D0BD0682D09D04C2D39D05F
:101200006A2D35D0742D35D07A2D33D016E038E0E4
:10121000E1682F4620468847B842054609D16C2F21
:1012200026D04FF48060E168064320468847054693
:1012300004E06C2F1AD04FF4807006430DB3A5F173
:101240004100192802D8203546F400664A4629464E
:10125000204626604E46FEF7F1FF80B101280BD0F4
:10126000F61D26F0070000F1080956E74020E4E7E4
:101270008020D8E70020D6E706F104094DE728468C
:1012800052E7206ABDE8F09FD438010010B5431C36
:1012900002E010F8011B71B18107FAD14FF0013261
:1012A00002C88C1A8C4314EAC211F9D0C01A0A067B
:1012B00003D0C01E10BDC01A10BD0A0401D0801E8C
:1012C00010BD0902FCD0401E10BD032A40F2308040
:1012D00010F0030C00F0158011F8013BBCF1020F77
:1012E000624498BF11F801CB00F8013B38BF11F8F8
:1012F000013BA2F1040298BF00F801CB38BF00F80F
:10130000013B11F0030300F02580083AC0F008808B
:1013100051F8043B083A51F804CBA0E80810F5E76F
:10132000121D5CBF51F8043B40F8043BAFF3008052
:10133000D20724BF11F8013B11F801CB48BF11F8C7
:10134000012B24BF00F8013B00F801CB48BF00F897
:10135000012B704710B5203AC0F00B80B1E818504F
:10136000203AA0E81850B1E81850A0E81850BFF48F
:10137000F5AF5FEA027C24BFB1E81850A0E818502E
:1013800044BF18C918C0BDE810405FEA827C24BF82
:1013900051F8043B40F8043B08BF7047D20728BF10
:1013A00031F8023B48BF11F8012B28BF20F8023B5F
:1013B00048BF00F8012B704702F0FF0343EA032205
:1013C00042EA024200F002B84FF000020429C0F0E5
:1013D000128010F0030C00F01B80CCF1040CBCF167
:1013E000020F18BF00F8012BA8BF20F8022BA1EBB9
:1013F0000C0100F00DB85FEAC17C24BF00F8012B9E
:1014000000F8012B48BF00F8012B70474FF0000295
:1014100000B5134694469646203922BFA0E80C50EA
:10142000A0E80C50B1F12001BFF4F7AF090728BFC5
:10143000A0E80C5048BF0CC05DF804EB890028BF41
:1014400040F8042B08BF704748BF20F8022B11F06A
:10145000804F18BF00F8012B7047704770477047E6
:1014600000487047A0AF0020704770477047704732
:1014700038B504460A4600206946AFF300800028CC
:1014800008BF38BD02460099204600F06DFC0120DF
:1014900038BD012000F05CBFF8B5AFF30080054611
:1014A00000200C46102000BF0646A819A0420DD906
:1014B000324669460020AFF30080070008BF00F005
:1014C00047FF0098A04218BF0546C419FFF7C8FFA0
:1014D00005600746F01D20F007004619284600F079
:1014E0000AF8B44208BFF8BDA21B31463868BDE80F
:1014F000F84000F039BC00210160C0E901107047DC
:101500001020704710B500F02BFC006810BD10B51E
:10151000044600F025FC046010BD70B504468569E2
:101520000068C10601D5302600E02026C00707D09C
:1015300070BDD4E9012130469047206A401C2062EA
:101540006D1EF6D570BD70B5044685690078C0077C
:1015500007D170BDD4E9012120209047206A401CAA
:1015600020626D1EF6D570BD09684A0501D540B2EE
:101570007047C905FCD500B2704709684A0501D516
:10158000C0B27047C905FCD580B2704770B50C4633
:101590000546012A05D02878800600D5EA6900238F
:1015A00002E0012305E05B1C934202D2E05C0028CC
:1015B000F9D1A869E618C01AA861286A18442862F7
:1015C0002846FFF7AAFF04E0D5E9012114F8010B32
:1015D0009047B442F8D32846FFF7B5FF70BD2DE918
:1015E000F0470D4699469246044600F124080168EA
:1015F000880604D5E06921F01001216000E0012097
:10160000A84201DD471B00E00027A1697A1902EB1F
:101610000900081AA0612078C00602D42046FFF70E
:101620007CFF002608E0D4E901211AF80600904763
:10163000206A401C761C20624E45F4DB2078C006F0
:101640000AD52046FFF769FF06E0D4E901213020E2
:101650009047206A401C2062381EA7F10107F4DC85
:1016600007E0D4E9012118F805009047206A401CE2
:101670002062281EA5F10105F3DC2046FFF763FF79
:101680002078000602D50220BDE8F0870120FBE7A4
:1016900011680268006A530501D508700AE0D30595
:1016A00001D5088006E0130603D5C217C1E9000280
:1016B00000E008600120704770472DE9FF4F0C469D
:1016C0001E464FF0FF378BB0D2E90001DDF8608095
:1016D0000A908A46C1F30A5505B93D4600210846DD
:1016E00012F072F8BAF1000F00F4400005DA00EBD6
:1016F00080004FF4400101EA50004FEA9059B9F1DF
:10170000010F00DDB9460A9850EA4A000ED044F6AF
:101710001050A5F2FF3545432F14B8F1000F1ED02D
:101720007542291E1EDDC9F100021CE0B8F1010F4F
:101730004FF0000001D0302103E0F24305E02154D6
:10174000401CB042FBDB30460022002121540B99A3
:10175000C1F80880C1E900200FB0BDE8F08FBD1BC3
:101760006D1CDEE74A4600DA694206A800F05EFD1D
:1017700006AB93E8070003AB83E8070050460A99DD
:1017800000F017FF8DE80700A0F500501F3800900B
:101790000398002D0ADD42F21F014A460844002347
:1017A00003A90390684601F080F909E0A0F5005014
:1017B0004A461F38002303A90390684601F08AF9BE
:1017C0008DE807000004000C03D04FF0FF30410803
:1017D00000E01046B8F1000F03D000220092154639
:1017E0001EE0751E05D400F0D9FA303262556D1E28
:1017F000F9D5B3460122084302D000227F1C04E041
:101800002078302801D100227F1E002A099784D039
:101810001DE0112D07DA00F0C1FA303262556D1C5F
:1018200050EA0102F5D1084302D00098C8B10EE099
:101830000021681E05E0235C625C63542254401E54
:10184000491C8142F7DBAB46A81B401E09900020D3
:1018500004F80B000B98099AC0F80880C0E9002B27
:101860007AE711264FF0000857E72DE9F04F884638
:101870000446D21D22F0070191B0D1E90001CDE963
:101880000A010BF0CBFC02460B98C00F01D02D20B3
:1018900007E02068810701D52B2002E0202101EA22
:1018A000C000032A099001D0072A05DB0346414600
:1018B000204600F04FFC0BE12078800601D5E0695E
:1018C00000E00620B8F1650F814606D0B8F1660F3A
:1018D00018D0B8F1670F70D131E00020B9F1110FC5
:1018E000009001DB112301E009F101030AAA01A91B
:1018F0000CA8FFF7E2FEDDE90C70002609F10105F6
:10190000834647E001204B4600904FF000470AAA6B
:1019100001A90CA8FFF7D1FEDDE90DB00C995D46D9
:10192000002610B909F101000D18B9EB050003D428
:10193000C0F1FF3609F10105A5EB09002BE0B9F173
:10194000010F01DA4FF001090020B9F1110F0090E9
:10195000484601DD112300E003460AAA01A90CA8AC
:10196000FFF7ABFEDDE90C704D460026834620787C
:1019700000070AD4AB4500DA5D4601A8012D04DD5D
:10198000411911F8011C302907D04F4502DA17F12F
:10199000040F04DA012082460FE06D1EEEE7002FEF
:1019A00002DCED1B3E4403E0781CA84200DD7D1CF8
:1019B000B81B00F1010A4FF000472078000703D45C
:1019C000AA4501DB4FF0FF3A0021B7F1004F0DF1BE
:1019D00043088DF8431024D002202B23002F01DA76
:1019E0007F422D230A21021EA0F1010000DC5FB11D
:1019F00097FBF1FC97FBF1F201FB1C7C17460CF105
:101A0000300C08F801CDEEE7A8F101000370218841
:101A1000090501D5452100E06521A0F1010800F884
:101A2000011C09980FA9A1EB0807FF1D00B10120B7
:101A3000411901EBEA70A1693844081A401EA061FF
:101A40002078C00602D42046FFF767FD099828B128
:101A5000D4E901219047206A401C20622078C0060A
:101A600022D52046FFF759FD1EE0002E04DBB345CA
:101A700002DD01A8805D00E03020D4E9012190471B
:101A8000206A401C2062761CAAF101005FEA000A6D
:101A90000AD100F061F9C0680168405CD4E9012115
:101AA0009047206A401C2062281EA5F10105DCDC5D
:101AB00007E0D4E9012118F8010B9047206A401C87
:101AC0002062381EA7F10107F3DC2046FFF73BFD3B
:101AD000032011B041E6000001694A1C0261087848
:101AE000704700B58FB0CDE901310021059105495E
:101AF0007944CDE9031011466846FFF703FB0FB0A8
:101B000000BD0000E5FFFFFF0A6802F8010B0A6054
:101B1000704700002DE9FF5F15468A460446DFF84E
:101B2000AC80F8440027D8E900103E46CDE900100B
:101B300010E03AF816106A4602A800F0E9FB411CD2
:101B400007D02178890603D5E269391891420DD86A
:101B50000744761C2078800602D5E069B84205DD8E
:101B6000AE42E6DB3AF816000028E2D1A069C01BBD
:101B7000A0612046FFF7D1FCD8E90010CDE90010A4
:101B8000002017E03AF818106A4602A800F0C0FBDF
:101B9000B0F1FF3F81460BD000250DF1080B05E0A9
:101BA000D4E901211BF8050090476D1C4D45F7D382
:101BB00008F10100B0428046E4DB206A384420622C
:101BC0002046FFF7C0FCBDE8FF9F0000DA2E0100B1
:101BD0002DE9F0418046D21D22F007020025D2E90E
:101BE0000002F52915A614D0011E72F1000106DAD3
:101BF0000023D0EB030063EB020211A608E0D8F843
:101C000000108B0701D50FA602E0490701D50EA6EB
:101C100001251146002408F1240704E000F0BEF875
:101C200030323A55641C50EA0102F7D12B46324655
:101C300021464046BDE8F041FFF7D1BC000000005E
:101C40002D0000002B0000002000000030B4002117
:101C500000F1240408E002F00705D208303542EA1A
:101C60004372DB086554491C52EA0305F3D104684A
:101C7000002310A2250707D5A40600D421B1C4690A
:101C800001230DA2641EC46130BCFFF7A8BC10B5CF
:101C9000044621461068FFF770FC02462046BDE866
:101CA00010400023D2E7D21D22F00701D1E9002322
:101CB000CCE700000000000030000000F0B40D464A
:101CC0000188090502D5214C7C4402E01F4C7C446C
:101CD0000E34002100F1240608E002F00F0712097B
:101CE000E75D42EA03721B097754491C52EA030775
:101CF000F3D102780023120704D5702D06D009B164
:101D0000022311342246F0BCFFF769BC01231034D2
:101D1000F8E770B504460D4621461068FFF72DFC24
:101D2000024629462046BDE870400023C6E7D21D82
:101D300022F00703D3E90023C0E70368126843F0E9
:101D4000200303600823C3610023B7E73C2D010093
:101D50000048704798AF002000487047B8AF002097
:101D60000048704798AF0020034640688C46002822
:101D700018BF88423CBF03464068F8D3186818442F
:101D8000884207D00CF1030020F00700001D411A23
:101D9000521A0146081D0A60FFF7B1B830B5B0F11C
:101DA0000A024FEA900E71F100034EEA817EB0EB19
:101DB0000E0061EB91014FEA101E4EEA017E10EB1E
:101DC0000E0041EB11114FEA102E4EEA016E10EB9E
:101DD0000E0041EB11214FEA104E4EEA014E10EB7E
:101DE0000E0041EB1141401841F100014FEAD000D3
:101DF00040EA41704FEAD10110EB80054FEA8104BF
:101E000044EA907444EB01046D1944EB0404521B42
:101E1000A3414FF0000348BF0A3200D530BD401C3B
:101E200041F1000130BD00001FB584B000200A9CC4
:101E300006AB04AA02A90094AFF3008018B1DDE953
:101E4000020108B010BD0348204000F0C5FA002090
:101E50000146F6E70000207C2DE9F04F04460D46D0
:101E6000D21D22F0070089B0D0E9009748463946D4
:101E70000BF0D4F90246F80F01D02D2307E02068BB
:101E8000810701D52B2302E0202101EAC0038DF850
:101E900020300BB1012000E00020032A824601D04F
:101EA000072A04DB2946204600F054F93FE1207858
:101EB000800601D40D2500E0E569C7F30A560D2D13
:101EC00049DA00214FEA175B084611F07DFC002F2C
:101ED00000F4400007DA00EB80004FF4400100EB13
:101EE000D07001EA60008115012901DD4FF0FF315A
:101EF00000224FEA850CBCF1180F06D31346ACF153
:101F000018004FF08052C24003E04FF4801323FAD0
:101F10000CF30CF10C0CBCF1200F04D3ACF1200C31
:101F200009FA0CF001E007FA0CF000294FF0004824
:101F300001DD18B90FE00ED140450CD319EB0209B1
:101F40005F4121B9404502D19F4329EA0209BBEB19
:101F5000175F00D0761C2088000502D57B487844A6
:101F600002E07A487844193808AA302302F80A3087
:101F7000037C0AF10101002E0AF1020A53546A4659
:101F800002DC4FF0300101E04FF031014FF0010869
:101F90008DF8001002D0A6F2FF3603E059EA47019F
:101FA00000D06B4E002D02DC2178090704D54FF0DC
:101FB00002082E218DF80110C44600210BE0C7F362
:101FC00003433F01C35C491C6D1E02F8083005291C
:101FD00008F1010801DA002DF1DC00210CE000EB32
:101FE0001973491C1B786D1E082902F808304FEA46
:101FF000091908F1010801DA002DF0DC21688B06CF
:1020000002D516E0A8F10108E04505DD02EB080362
:1020100013F8013C302BF5D0B8F1000F09DD02EBCD
:10202000080313F8013C2E2B03D1090701D4A8F1B2
:102030000108002D05DD3E2102F808106D1E08F193
:102040000108407C002E02F8080008F1010804DABB
:102050002D20764202F8080002E02B2002F808004A
:102060000A214FF47A70864208F101080BDB96FBD7
:10207000F0F3303302F8083096FBF0F308F1010872
:1020800000FB136601E0642E0CDB642096FBF0F38A
:10209000303302F8083096FBF0F308F1010800FB3A
:1020A000136601E00A2E06DB96FBF1F0303002F8F1
:1020B000080008F1010896FBF1F001FB10603030D8
:1020C00002F80800A16908F1010808EB050202EB1B
:1020D0000A00081AA0612078C00602D42046FFF743
:1020E0001CFA216A08AE01EB0A00206204E0D4E980
:1020F000012116F8010B9047BAF1010AF7D22078B6
:10210000C00602D52046FFF708FA6E4609E016F829
:10211000010B3E280FD0D4E901219047206A401CD2
:102120002062B8F10108F2D22046FFF70CFA09B09C
:102130000320BDE8F08F206A2844206203E0D4E940
:102140000121302090476D1EEBD3F8E7E12A010012
:1021500002FCFFFF2DE9F0411F46044603260168FB
:10216000072A01F4006004DB08B116A505E016A5F6
:1021700003E008B115A500E015A521F010002060CE
:10218000A069C01EA0610FB1401EA0612046FFF7EC
:10219000C4F94FB1D4E9012138469047206A401C68
:1021A0002062C01C206206E0206AFAE7D4E901211F
:1021B00015F8010B9047761EF8D22046FFF7C3F9B9
:1021C000BDE8F0814E414E006E616E00494E460002
:1021D000696E660010B5436913B1AFF3008001E08A
:1021E000FFF7D4F9012010BD127800F124010A7024
:1021F00000224A700122EDE711684FF0FF32E9E753
:1022000010B5436913B1AFF3008001E0FFF782FC22
:10221000012010BD128800F1240182840022C284B2
:102220000122EDE711684FF0FF32E9E72DE9F047B1
:10223000814616468AB0354878440DC88DE80D00B1
:1022400032487844801C03AC0DC884E80D0041F688
:102250009B300844372190FBF1F290FBF1F5A5F19A
:10226000800501FB12041B3C02D56442012000E002
:102270000020DFF898A080460027FA44AAF1BE0AA1
:102280000EE0E0070AD03246684607EB470101231B
:102290000AEB810100F01EFC8DE8070064107F1C32
:1022A000002CEED1194F7F44AE3F19E0E80715D05E
:1022B00007EB04100DF1180A90E80E008AE80E00F2
:1022C000C068F04201D1981908903246012306A94E
:1022D00003A800F0FFFB03AB83E807006D10641C4C
:1022E000002DE3D14FF0010332466946B8F1000FEB
:1022F00003A802D000F0D9FB01E000F0EBFBC9E934
:102300000001C9F808200AB0BDE8F087982801004C
:1023100070B516460C46054600F048F8036893F879
:102320000101012806D0FF2C0FD8185D68B10120EB
:102330002C7070BDD3F807013246214603F2071313
:1023400003442846BDE8704018474FF0FF3070BD89
:1023500010B500F049F8BDE8104000F038B87047FB
:102360007546FFF7F5FCAE4605006946534620F07A
:102370000700854618B020B5FEF73EF8BDE82040BE
:102380004FF000064FF000074FF000084FF0000B31
:1023900021F00701AC46ACE8C009ACE8C009ACE8E4
:1023A000C009ACE8C0098D467047000010B5FFF7C2
:1023B000D3FC001D10BD00BFB9FD000010B50446E0
:1023C000AFF300802046BDE81040FDF7A0BF002815
:1023D00001D000F071B8704710B500F08DF8BDE87D
:1023E0001040FFF7F4BF000010B5012805D0002110
:1023F00003A000F067F8012010BD09A1F8E7000074
:1024000053494752544D454D3A204F7574206F66DD
:102410002068656170206D656D6F72790000000045
:102420003A2048656170206D656D6F727920636F29
:1024300072727570746564004FF0013C50F8042BA3
:1024400051F8043B9A4221D1A2EB0C03934313EAC7
:10245000CC1317D150F8042B51F8043B9A4215D1F4
:10246000A2EB0C03934313EACC130BD150F8042BCB
:1024700051F8043B9A4209D1A2EB0C03934313EAAF
:10248000CC13DBD04FF00000704700BFD01A01BA68
:10249000B1FA81F101F0180122FA01F0CB40C1F14B
:1024A0002001DBB2C0B2C01A2CFA01F3D11A914359
:1024B00011EAC311E6D1704701491820ABBEFEE70F
:1024C0002600020070B505460C460A2000E06D1C8F
:1024D00000F068F835B128780028F8D102E0641CD3
:1024E00000F060F814B120780028F8D1BDE8704001
:1024F0000A2000F057B8000010B5022803D04101AF
:1025000003D50DA112E0002010BD010101D50FA1DE
:102510000CE0C10001D511A108E0810001D512A194
:1025200004E0400001D513A100E0002115A0FFF751
:10253000C9FF012010BD0000496E76616C696420FE
:102540004F7065726174696F6E000000446976694E
:102550006465204279205A65726F00004F7665727B
:10256000666C6F7700000000556E646572666C6F74
:1025700077000000496E6578616374205265737559
:102580006C7400005349474650453A2041726974C3
:10259000686D6574696320657863657074696F6ED2
:1025A0003A20000008B569468DF800000320ABBE54
:1025B00008BD5FEA400C08BF91F0000F4FEA8C2382
:1025C0004FEAC12243EA51514FEA1C5018BF00F5AF
:1025D000F0404FEA300018BF41F000415FEA6C5C08
:1025E00000F02980BCF1FF3F08BF40F080407047F9
:1025F000130C06BF12044FF0100C4FF0000C130E1A
:1026000004BF12020CF1080C130F04BF12010CF1ED
:10261000040C930F04BF92000CF1020CD30F04BF03
:1026200052000CF1010C11464FF00002A0F11F0006
:10263000A0EB0C00704711F0004F08BF704731F05D
:1026400000413FF4D5AF0B0C06BF09044FF0100C4E
:102650004FF0000C0B0E04BF09020CF1080C0B0F1D
:1026600004BF09010CF1040C8B0F04BF89000CF1AD
:10267000020CCB0F04BF49000CF1010CCCF120037C
:10268000A0EB0C0022FA03F302FA0CF241EA030178
:1026900000F10100704720F07F4C80EA030023F036
:1026A0007F47ACEB070303F57C5300F0004003F1D8
:1026B000FF032DE980494FEA154B09B44FEA144353
:1026C00025EA0B4E24EA03480FF2042606EB1327F3
:1026D00049083E785FEA320203FB0667C7F5000748
:1026E00007FB06F64FEA54374FEAD64606F10206D4
:1026F00007FB066CCCF1005C4FEA1C472CEA074C48
:1027000007FB06F40CFB06F504EB15464FEA96169C
:1027100034BF00204FF000404FEAD13706FB07FCE2
:102720004FEA1C4C0CFB0BF7D21B03FB0CF761EBC5
:1027300007010CFB0EF7B0EB074072EB17420CFBE6
:1027400008F734BFA2EB0742B2EB074261EB174137
:102750004FEA0C444FEA910706FB07FC4FEA1C4C7A
:102760000CFB0BF7B0EBC74072EB573203FB0CF7D7
:1027700034BFA2EBC742B2EBC74261EB57310CFB4F
:102780000EF7B0EBC70072EB57720CFB08F734BFC3
:10279000A2EBC702B2EBC70261EB5771039F4FEA8E
:1027A000816141EA921104EBCC044FEAD1374FEA40
:1027B000826206FB07FC42EA90124FEA80604FEA11
:1027C0001C4C0CFB0BF7D21B03FB0CF761EB070156
:1027D0000CFB0EF7B0EB074072EB17420CFB08F74F
:1027E00034BFA2EB0742B2EB074261EB17414FEA5D
:1027F0008C554FEA910704EB9C2406FB07FC4FEA3B
:102800001C4C0CFB0BF7B0EBC74072EB573203FBD1
:102810000CF734BFA2EBC742B2EBC74261EB5731B2
:102820000CFB0EF7B0EBC70072EB57720CFB08F70E
:1028300034BFA2EBC702B2EBC70261EB577115EBD5
:102840004C254FEA816141EA92114FEA82624FEAD8
:10285000D13742EA901206FB07FC44F100044FEA2C
:1028600080604FEA1C4C0CFB0BF7D21B03FB0CF7F0
:1028700061EB07010CFB0EF7B0EB074072EB174260
:102880000CFB08F734BFA2EB0742B2EB074261EB47
:10289000174115EB1C154FEA813141EA92414FEA8D
:1028A000823242EA90424FEA80304FEA0C7644F19D
:1028B000000448EA03434EEA0B484FF0000EB2EB27
:1028C000080C71EB030724BF624639464EEB0E0E2F
:1028D0004FF0000B0018524149414BEB0B0BB2EB90
:1028E000080C71EB03077BF1000B24BF62463946ED
:1028F0004EEB0E0E4FF0000B0018524149414BEBCE
:102900000B0BB2EB080C71EB03077BF1000B24BF40
:10291000624639464EEB0E0E51EA020718BF46F0EA
:10292000010616EB0E7655F1000254F1000103D5B5
:10293000BDE88901BDE80088BDE88901BDE800481F
:10294000B619524141EB0101A3F1010370478080A8
:102950007F7E7D7C7B7A79787776767574737271F9
:1029600071706F6E6E6D6C6C6B6A6A6968686766B1
:1029700066656464636362616160605F5F5E5E5D43
:102980005D5C5C5B5B5A5A595958585757565655B7
:1029900055555454535352525251515050504F4F19
:1029A0004F4E4E4D4D4D4C4C4C4B4B4B4A4A4A4969
:1029B00049494848484747474746464645454544AC
:1029C0004444444343434342424242414141002B39
:1029D0009C4630D477002BD01CB54FEA370703B4A0
:1029E0004FF010004FF01001BAF1000F06D0BCF10B
:1029F000000FDCBF40F0080040F0080110F0E4FEDA
:102A00000FBCBDE810400BF1010BBBF1010F08BF7B
:102A10005FEA170722BF12F1010211F101014FF025
:102A2000004143F1000300F0004043EA000070471A
:102A3000F9D35708D0E746EA064613F1400F4FEAAC
:102A400016461FDD13F1200FDFBF16430A46002193
:102A500020335B42BED0C3F1200746EA064602FAA5
:102A600007F74FEA164646EA0706C3F1200722FA9F
:102A700003F201FA07F721FA03F14FF0000342EAEB
:102A80000702A7E746EA020646EA06464FEA164666
:102A900046EA0106BCBF46EA0646360C4FF0000384
:102AA0004FF000024FF0000194E72DE9804C9A4668
:102AB000934670B491E8380007C831EA400C48BF2B
:102AC00034EA430C03D5FFF7E6FDFFF780FFF0BCC7
:102AD000BDE8008C2DE9804C9A46934670B491E88D
:102AE000380007C810F0804F08BF13F0804F03D1A3
:102AF00000F005F8FFF76BFFF0BCBDE8008C20F09C
:102B00007F4780EA030023F07F4C07EB0C03A3F51B
:102B10007C5300F00040A3F1FE0392F0000F00F0A0
:102B2000B38095F0000F00F077802DE901494FEA5E
:102B300011404FEA144621EA004800FB06FC24EA53
:102B4000064708FB06F607FB08F800FB07F718EB3B
:102B500006484CEB164C4FEA124B18EB07484FEA6D
:102B600015464CEB174022EA0B4E0BFB06FC25EA00
:102B700006470EFB06F607FB0EFE0BFB07F71EEBE8
:102B8000064E4CEB164C4FF000061EEB074E4CEB7E
:102B9000174B18EB0B0840F1000018EB0E0B58EB2D
:102BA000000840F100008F1A4FF000013CBFC943FC
:102BB000661B14BFB5EB040C00213CBFC943F61BD8
:102BC0004FEA17444EEA8E0E27EA04454FEA1C47A7
:102BD00004FB07622CEA074C05FB07F70CFB05F624
:102BE00004FB0CFC16EB074642EB174216EB0C46B7
:102BF00042EB1C421BEB060658EB0202414146EA3F
:102C00009E0601D5BDE80189B619524141EB01018B
:102C1000A3F10103BDE801894FEA14454FEA1147CA
:102C200024EA054621EA074C05FB07F406FB07F7F3
:102C30000CFB06F105FB0CFC11EB074144EB1744C0
:102C40004FEA124711EB0C4144EB1C4422EA074CBB
:102C500005FB07F206FB07F70CFB06F605FB0CFC71
:102C600016EB074642EB174216EB0C4642EB1C45AF
:102C70006A1854F1000148BF7047B619524141EB40
:102C80000101A3F10103704795F0000F37D04FEA1F
:102C900011424FEA144721EA024624EA074C02FB9C
:102CA00007F106FB07F70CFB06F402FB0CFC14EB28
:102CB000074441EB17414FEA154714EB0C4441EB35
:102CC0001C4125EA074C02FB07F506FB07F70CFB46
:102CD00006F602FB0CFC16EB074645EB174516EB18
:102CE0000C4645EB1C42121951F1000148BF7047D8
:102CF000B619524141EB0101A3F1010370474FEABC
:102D000014454FEA114724EA054621EA074C05FB22
:102D100007F106FB07F70CFB06F24FF0000605FB78
:102D20000CFC12EB074241EB174112EB0C4251EB4A
:102D30001C4148BF7047921841EB0101A3F1010308
:102D4000704700004A494A6822F440324A604A68A3
:102D500043681A434A6001684A6822F480724A60F4
:102D600001684A68036942EA03224A6001684A68C6
:102D700022F040724A6001684A6883681A434A60D8
:102D800001688A6822F400628A6001688A68C36800
:102D90001A438A60816A6FF07062D14214D0016870
:102DA0008A6822F070628A6001688A68836A1A43BE
:102DB0008A6001688A6822F040528A6001688A68E5
:102DC000C36A1A438A6009E001688A6822F0706267
:102DD0008A6001688A6822F040528A6001688A68C5
:102DE00022F002028A6001688A68037E42EA430296
:102DF0008A6090F8201089B101684A6842F4006244
:102E00004A6001684A6822F460424A6001684B687F
:102E1000426A521E43EA42324A6004E001684A684C
:102E200022F400624A600168CA6A22F47002CA622F
:102E30000168CB6A828B521E43EA0252CA62016861
:102E40008A6822F400728A6001688A6890F83030DB
:102E500042EA43228A6001688A6822F480628A60BA
:102E600001688A68406942EA8020886070470000F3
:102E70000023014001221021014802F04BB900005B
:102E80000000024000221021014802F043B9000076
:102E90000000024001221146014802F03BB9000047
:102EA0000004024000220121014802F033B9000071
:102EB0000004024070B50446FFF7E4FF922000F0E2
:102EC00033F906226649122000F010F9FFF7D2FF0D
:102ED000634DA5F11C0668782978000200B208430A
:102EE00000EE100AD6ED030AB8EEC00A60EE200A22
:102EF00094ED080A60EE800AC4ED000AE878A9782B
:102F0000000200B2084300EE900AB8EEE01AD6EDD7
:102F1000030A21EE201A21EE001A84ED011A6879C5
:102F20002979000200B20843308101EE100AB8EEA0
:102F3000C11A61EE200A20EE800A84ED020AFFF732
:102F4000B1FF08222946002000F0D0F8FFF7A2FFC9
:102F500028780F285DD1F07880B3E878A97800024E
:102F600000B2084300EE100AD4ED090AB8EEC01A08
:102F700096ED040A51EE000AC4ED030A6879297936
:102F8000000200B2084300EE900A94ED0A1AF8EE2F
:102F9000E00A10EE801A84ED041AE879A97900029B
:102FA00000B20843308100EE900A94ED0B1AF8EE5F
:102FB000E00A10EE801A84ED051A2AE0FFE7E878AF
:102FC000A978000200B2084300EE100AF8EEC00A29
:102FD00096ED040A60EE800AC4ED030A6879297947
:102FE000000200B2084300EE900AF8EEE00A60EE3C
:102FF000800AC4ED040AE879A979000200B2084306
:10300000308100EE900AF8EEE00A20EE800A84EDAE
:10301000050AFFF737FFA22000F086F802221049C8
:10302000222000F063F8FFF725FF28786978C000B8
:1030300040EA51103081B0F5806F02DBA0F50060EE
:103040003081B6F90800B4EE001A00EE100AF8EE6E
:10305000C00AB3EE070A00EE810A84ED070A70BDCC
:10306000B803002070B50D4617490860174C0020C2
:10307000A0700AF045FCA1780843A0700AF0D4FCC7
:10308000A1780843A0701DB1114800F089F918E03B
:103090000F489FED100A80ED090A9FED0F0A80EDA1
:1030A0000A0A9FED0E0A80ED0B0A9FED0D0A80EDD6
:1030B0000C0A9FED0C0A80ED080A9FED0B0A80EDCB
:1030C000060AA07870BD0000E40300209C030020E5
:1030D00040A90020948358B956A423B929E0A53A01
:1030E0003F161B41C48B813F0000204270B50D4646
:1030F000144640F0800000F017F806E0552000F07C
:1031000013F805F8010B641EE4B2002CF6D170BD73
:1031100010B50C4640F0800000F006F8552000F095
:1031200003F8207010BD000001B582B04FF47A7032
:1031300000900548012301AA02A9006803F090FB52
:103140009DF804000EBD0000E403002010B50C46FD
:10315000FFF7EAFF2046BDE81040FFF7E5BFB6EEF7
:10316000002A92ED020AB0EE421AD2ED030A00EEF6
:10317000401AD0ED001AD0ED013A00EEE01A21EE2F
:10318000213A92ED011AD2ED001A61EE002A41EEC9
:10319000E02A61EE200A41EE800A02EEA33A90EDA9
:1031A000020AF0EE002A00EE803A23EE220A81EDB8
:1031B000000A92ED010AD2ED021A92ED001AD2ED48
:1031C000030A20EE213AD0ED003A90ED014A01EEDB
:1031D000203A23EE233AF0EE423A40EE403A40EEF7
:1031E000E03A61EEA00A41EE400A03EE843A90ED27
:1031F000020A00EE803A23EE220A81ED010AD2EDA6
:10320000010AD2ED031A92ED020A92ED001A20EEA5
:10321000A13A60EE211AD0ED003A00EEE02A01EE6C
:10322000403A41EE201A90ED011A00EE402A23EEBA
:10323000233A90ED020A01EE813A02EE003A23EEC3
:10324000220A81ED020A7047FEE70000014801F002
:10325000C4B90000A8060020014801F0BEB9000072
:10326000D006002008B50A494FF404720A60002213
:103270008A60CA6008220A610649020A0A70487018
:103280000A466B460249044801F022F808BD0000D6
:103290003096002012030020A806002038B50E4CFE
:1032A0004FF4007525600025A560E56008252561BF
:1032B0000A4C050A25706070080AA070E170100AB7
:1032C00020716271180AA071E3716B4622460249AF
:1032D000034800F0FDFF38BD00960020F9020020F1
:1032E000A806002038B50E4C40F2FF1525600025D9
:1032F000A560E560082525610A4C050A2570607007
:10330000080AA070E170100A20716271180AA07199
:10331000E3716B4622460249034800F0D9FF38BDED
:10332000E8950020F1020020A806002004284FF0B4
:10333000000070470020704710B50022044905487E
:1033400008F0D2FB0449034808F0C8FB002010BD78
:10335000E02300203C130020E01B002010B50146B4
:10336000034808F0BBFB024808F097FB002010BDA3
:103370003C13002010B50A460849D1F89012D1F844
:103380001412002901D0012010BD0146034808F0A5
:10339000ABFBBDE81040014808F020BC3C13002006
:1033A0002DE9F04F04462DED048B89B000200790E5
:1033B000089000F017FCEA4E86ED050A04AF0DF107
:1033C00004084FF07C5BDFF89C93DFF89CA300F0CF
:1033D00009FCD6ED050AE54930EE600A10EE100A48
:1033E000884214DD9FEDE20A84ED090A9FEDE10AAF
:1033F00084ED0A0A9FEDE00A84ED0B0A9FEDDF0AD7
:1034000084ED0C0A9FEDDE0A84ED060A85E19FED4E
:10341000DD0A00F0A9FB9FEDDC0A84ED0C0A84EDC7
:10342000090A84ED0A0A84ED0B0A0025F6E0FFF78D
:1034300029FD9220FFF778FE062207A91220FFF748
:1034400055FEFFF717FD9DF81D009DF81C100002AA
:1034500000B2084300EE100AD6ED030AB8EEC00A27
:1034600020EE200A84ED000A9DF81F009DF81E1032
:10347000000200B2084300EE900A96ED031AF8EE3F
:10348000E00A60EE810AC4ED010A9DF821009DF872
:103490002010000200B2084301EE900AF8EEE11A93
:1034A00021EE811A84ED021A20EE000A00EEA00A35
:1034B00001EE010A0AF070F9B0EE408A94ED0C0AB0
:1034C00030EE080A84ED0C0AFFF7ECFC082207A98D
:1034D0000020FFF70BFEFFF7DDFC9DF81C000F2816
:1034E00040D19DF81F009DF81E10000200B2084355
:1034F00000EE100AF8EEC00A96ED040A60EE800AAB
:10350000C4ED030A94ED091A71EE200AC4ED090A0C
:103510009DF821009DF82010000200B2084300EE43
:10352000900AF8EEE00A60EE800AC4ED040A94ED19
:103530000A1A71EE200AC4ED0A0A9DF823009DF8CC
:103540002210000200B2084300EE900AF8EEE00AF2
:1035500020EE800A84ED050AD4ED0B0A30EE800AD5
:1035600084ED0B0A002D7DD0B4EEE88AF1EE10FA5E
:1035700001DDF0EE488AB4EEC98AF1EE10FA01D20C
:10358000B0EE489A002004EB800191ED030A07EBAE
:103590008001D1ED000AB4EEE00AF1EE10FA01DD8F
:1035A00081ED000A08EB8001D1ED000AB4EEE00ADB
:1035B000F1EE10FA01D281ED000A401CC0B20328DE
:1035C000E1D338EEC90A86ED060A002007EB800138
:1035D000D1ED000A08EB800191ED001A09EB8001A2
:1035E00070EEC10AC1ED000A401CC0B20328EDD341
:1035F00010EE100A584515DCD9F80000504511DCD2
:10360000D9F8040050450DDCD9F80800504509DC14
:103610009FED5E0A00F0A8FA6D1CADB2F0888542FD
:10362000FFF405AFF288D4ED0C0A00EE102AB8EED4
:10363000400A80EE801A84ED0C1A002000EE102A59
:1036400004EB8001B8EE400AD1ED090A80EE801A41
:1036500081ED091A401CC0B20328EFD3FFF712FC1A
:10366000A22000E066E0FFF75FFD022207A922200A
:10367000FFF73CFDFFF7FEFB9DF81C009DF81D10B9
:10368000C00040EA5110B0F5806F02DBA0F5006089
:1036900000B200EE100AB4EE001AF8EEC00AB3EE63
:1036A000070A00EE810A84ED060AB088401CB0804B
:1036B000B06958453FF78BAE94ED0C0ADFED340A44
:1036C00030EE600AB0EEC00A10EE100A5845F1DC88
:1036D000D9F800005045EDDCD9F804005045E9DC8C
:1036E000D9F808005045E5DC94ED090A2949B0EE07
:1036F000C00A10EE100A8842DCDC94ED0A0AB0EE33
:10370000C00A10EE100A8842D4DC94ED0B0AB0EE29
:10371000C00A10EE100A8842CCDC94ED0C0ADFEDF2
:103720001E0A80EE801A84ED081A09B0BDEC048BE5
:10373000BDE8F08FF0EE488AB0EE489A002004EB26
:10374000800191ED030A07EB800181ED000A08EB8F
:10375000800181ED000A401CC0B20328EFD330E79E
:103760009C03002034A900209A99193E00002041B2
:10377000948358B956A423B929E0A53A3F161B41B2
:10378000000020420AD7A33B000000006F12033A5A
:10379000CDCC1C410AD7233CC3F51C412DE9F04F89
:1037A0000BAFDDE909C897E8800E0F9D002404E007
:1037B000C4F1020E00F80E60641C032C02DA0E5DE8
:1037C000002EF5D110F8031F41F0380162F3020119
:1037D0000170018863F38911018041786CF38501E0
:1037E0004170818869F309018180B0F805106AF39E
:1037F0008C01A0F80510C1886BF34F11C180B0F89F
:10380000011068F38E11A0F80110418867F3CF1101
:103810004180C01E002104E0431815F8012BDA7323
:10382000491CB942F8D3BDE8F08F00000FB470B561
:1038300092B04FF6FF700590302216A906A8FDF74A
:1038400089FD03ACA5208DF80C003320ADF80D00E8
:10385000564E30788DF80F00FF220421204600F0EC
:103860000FFB8DF8100040F20130ADF811004FF45D
:103870008870ADF804000BF0BFFEADF806000BF049
:10388000BBFE40F2651165282ED007DC072847D221
:10389000DFE800F0460C11161B20250066380528CD
:1038A0003ED2DFE800F024292E33380040F2011028
:1038B000ADF8080039E04FF48170ADF8080034E04D
:1038C00040F20310ADF808002FE04FF48270ADF81D
:1038D00008002AE040F20510ADF8080025E04FF49A
:1038E0008370ADF8080020E0ADF808101DE04FF43B
:1038F000B370ADF8080018E040F26710ADF80800AA
:1039000013E04FF4B470ADF808000EE040F2691017
:10391000ADF8080009E04FF4B570ADF8080004E018
:10392000ADF808106520ADF80600BDF81420072199
:10393000204600F08DFA059001AB0246062118469C
:1039400000F086FA059006AB02462D21184600F0DD
:103950007FFA059003AD0024287807F073F96D1CF9
:10396000641C072CF8D301AD0024287807F06AF90D
:103970006D1C641C062CF8D306AD0024287807F0D3
:1039800061F96D1C641C2D2CF8D305AD002428783A
:1039900007F058F96D1C641C022CF8D33078401CD9
:1039A000307012B0002070BC5DF814FB9003002052
:1039B0002DE9F047DDE90AC8DDE90867DDF8309058
:1039C000002404E0C4F1020A00F80A50641C032C2D
:1039D00002DA0D5D002DF5D110F8031F21F038013A
:1039E000103162F302010170018863F389110180D3
:1039F000417866F385014170818867F30901818010
:103A0000B0F805106CF38C01A0F80510C18868F3BC
:103A10004F11C180018969F309010181BDE8F08777
:103A200010B5124A506800011FD5114B114C4FF0D0
:103A30000061586B0068A04203D90E484C38016001
:103A40000EE00A4CB834A04203D90A48503801604D
:103A500006E0064C5834A04201D9D16000E09160E4
:103A60001868016841F40071016010BD00600240F7
:103A7000F40D002058640240014801F0F7B800003E
:103A80007C120020014801F0F1B80000DC12002097
:103A9000014801F0EBB800005C1100200168CAB2D7
:103AA000103A1823B2FBF3F2064B9B5CC3656FF32D
:103AB0000901032A02D9091D816500E08165806D35
:103AC00070470000543A010810B5014600208A6A88
:103AD0008B694FF0C074002B0ED0B3F5005F1AD085
:103AE00062B3012A2AD0022A28D0032A03D1C96A44
:103AF000C90100D5012010BD1AB1012A06D0022A41
:103B0000F9D1C96AC901F6D5012010BDC96AA1421F
:103B1000FBD1012010BD52B1012A0AD0022A06D0E1
:103B2000032AF7D1C96AA142F4D1012010BD0120B6
:103B300010BDC96AC901FBD5012010BD012010BD0F
:103B400008B507484068009006480099026991420C
:103B500002D2C168491CC1600099016108BD000022
:103B6000001000E0480200200A4841680A4AD2EDED
:103B7000000A4268521AF8EE601A01EE102AB8EEF6
:103B8000411A60EE211AB4EEE11AF1EE10FAF0D308
:103B900070470000001000E04802002000B52DED45
:103BA000028B81B00D49496800910168009A511A51
:103BB00000EE101A0A49F8EE400A91ED000AB8EE3C
:103BC000400A80EE808A00990160FFF7B9FF01B0DA
:103BD000B0EE480ABDEC028B00BD0000001000E012
:103BE0004802002010B500F043F80C489FED0C1A75
:103BF000818890ED000A00EE901AC088B8EE400A65
:103C0000F8EE600A00EE810A00EE900A9FED051AB8
:103C1000F8EE600A00EE810A10BD00007802002074
:103C20006F12833ABD3786350D490A6842F08072BB
:103C30000A600C4900224A600B6843F001030B60E4
:103C400009494843094908604FF47A73B0FBF3F31C
:103C50004B60054BB0FBF3F08860CA607047000012
:103C6000FCED00E0001000E040420F0048020020A0
:103C70002DE9F84F204840680090FFF761FFDFF81A
:103C80007C904FF0000A0098D9F80C204FF0FF33D9
:103C90005146E2FB030104460D46C9E90E01D9F87D
:103CA00000B000235A4620462946FDF74FF9064644
:103CB0000F463046A0FB0B2107FB0B1106FB0A1336
:103CC000A71A65EB030809F130042660D9F80460EF
:103CD0000023324641463846FDF738F980B2A080CD
:103CE0007043381A68EB0A010023D9F80820FDF761
:103CF0002DF9E080BDE8F88F001000E048020020B8
:103D000070B506460D460E4CA5202070A4F8015053
:103D10000C490878E070401C08700521204609F025
:103D2000C9FD40F20230A4F805002A463146E01DE4
:103D3000FDF7CBFA2046BDE87040272109F0A4BD6D
:103D40000AA90020910300207047012001F0F4B877
:103D5000082001F0F1B8102001F0EEB8202001F0A9
:103D6000EBB8B6EE002A92ED020AB0EE421AD2ED9E
:103D7000030A00EE401AD0ED001AD0ED013A00EE31
:103D8000E01A21EE213A92ED011AD2ED001A61EE0D
:103D9000002A41EEA02A61EE200A41EEC00A02EE9E
:103DA000A33A90ED020AF0EE002A00EE803A23EEEC
:103DB000220A81ED000A92ED010AD2ED021A92ED7B
:103DC000001AD2ED030A20EE213AD0ED003A90ED30
:103DD000014A01EE603A23EE233AF0EE423A40EE19
:103DE000403A40EEE03A61EEA00A41EE000A03EEEE
:103DF000843A90ED020A00EE803A23EE220A81ED29
:103E0000010AD2ED010AD2ED031A92ED020A92EDF7
:103E1000001A20EEA13A60EE211AD0ED003A00EE31
:103E2000E02A01EE003A41EE601A90ED011A00EE30
:103E3000402A23EE233A90ED020A01EE813A02EE87
:103E4000003A23EE220A81ED020A70477047000013
:103E500010B503461046002B01D0084C0AE04FF67F
:103E6000FF7010BD13F8012B4240D2B234F812207B
:103E700082EA1020491E4A1CF4D110BD523C0108B0
:103E800010B5054C03E010F8013B5340E25C491EBD
:103E90004B1CF8D1104610BD523B010810B50B4821
:103EA0000168001D0468001D0068084400280BD04C
:103EB0000822074904F0D2FB054920460422BDE848
:103EC0001040103104F0CABB10BD0000107AFF1F73
:103ED0006E00002078B50024009490F83C20012A60
:103EE00019D0012280F83C200A680725092A14D934
:103EF0000368DE680A3A02EB42029540AE43DE6098
:103F00000A788B680A3A02EB420293400268D5684D
:103F10002B43D36011E0022078BD03681E6902EBD9
:103F200042029540AE431E610A788B6802EB420262
:103F30009340026815692B4313614A681F25072ABD
:103F400013D203685E6B521E02EB82029540AE43B1
:103F50005E630A8893B20A79521E02EB8202934092
:103F60000268556B2B43536328E00D2A13D2036874
:103F70001E6BD21F02EB82029540AE431E630A887D
:103F800093B20A79D21F02EB820293400268156B4A
:103F90002B43136312E00368DE6A0D3A02EB8202E0
:103FA0009540AE43DE620A8893B20A790D3A02EB7D
:103FB000820293400268D56A2B43D362174A184B9A
:103FC00005689D4206D10D68122D03D1556845F450
:103FD0008005556005689D421BD10B68102B01D0F0
:103FE000112B16D1536843F400035360096810295C
:103FF0000FD10C490C4A0968B1FBF2F101EB8101C8
:104000004900009102E00099491E009100990029A1
:10401000F9D180F83C40002078BD00000023014029
:1040200000200140A800002040420F000068C06C42
:10403000704770B504460026002C03D0206C002584
:1040400010B107E0012070BD204600F01DF8656446
:1040500084F83C50206CC00610D4206C20F48850AA
:1040600040F0020020642046FEF76CFE6564206C80
:1040700020F0020040F00100206400E0012684F8F6
:104080003C50304670BD000010B586B00446142187
:1040900001A8FDF7BBF9174B20680022164998428A
:1040A00009D1086840F480700860086800F48070E6
:1040B000009006B010BD114B9842FAD1086840F448
:1040C00080600860086800F4806000900A48143836
:1040D000016841F020010160006800F020000090BC
:1040E0001815019003200290039201A9044800F0E2
:1040F0002FFFDEE70020014044380240002201404B
:10410000001402402DE9F04104460D462068816804
:104110004FF0000749050BD58068C00508D5206C15
:1041200040F02000206484F83C700120BDE8F0815C
:1041300000F0F8FF06460FE0681C0DD025B100F036
:10414000F1FF801BA84207D9206C40F004002064D6
:1041500084F83C700320E9E7206800688007EBD50D
:1041600021686FF012000860206C40F40070206439
:104170002068816811F0405F13D1217E89B9C16A3E
:1041800011F4700F02D0806840050AD4206C20F42E
:1041900080702064206CC00403D4206C40F00100C7
:1041A00020640020C2E7000018B50022009290F8B9
:1041B0003C10012907D0012180F83C1001688B6870
:1041C000DB0702D014E0022018BD8B6843F0010326
:1041D0008B603049304B0968B1FBF3F101EB4101D1
:1041E000009102E00099491E009100990029F9D13F
:1041F00001688B68DB074AD0036C40F20164A3437B
:1042000043F4807303644B685B0505D5036C23F4AA
:10421000005343F480530364036CDB0404D5436C04
:1042200023F00603436400E0426480F83C201B4A0C
:104230006FF022030B605168CA06194907D0006865
:10424000884224D1816811F0405F1CD01FE00068D3
:1042500088420FD0134A904203D1D1F80423D206EA
:1042600008D0114A904212D1D1F8041301F01F0175
:1042700010290CD2816811F0405F08D1816841F0AB
:104280008041816003E0816841F0804181600020CD
:1042900018BD0000A800002040420F00002301408C
:1042A00000200140002101400022014090F8202020
:1042B000012A07D0022A05D0416A41F480214162D7
:1042C00001207047006842690A434261002070473C
:1042D000F0B590F820500468A468012D07D0022D95
:1042E00005D0416A41F4802141620120F0BD04F013
:1042F000806504F00066354301D1E5005BD5C4F369
:104300000164022C05D9416A41F400014162012097
:10431000F0BD0125A5401D608B684FF4C0759BB1B1
:10432000CE6805EB041733434E6843EAC6030668BC
:10433000F3514FF4C273076803EB04130E69FE5088
:10434000097D012909D00DE00E88CB6805EB041723
:1043500043EA46530668F351EBE70168CE5846F44A
:104360008076CE501179D379567941EA03619379F9
:104370001B0443EA062319434FF4C676036806EB91
:10438000041699511178D37841EA036193785278F1
:104390001B0443EA022211434FF4C473026803EB87
:1043A0000413D150006805EB0411425842F0010299
:1043B00042500020F0BD416A41F4001141620120E9
:1043C000F0BD000010B590F82020012A07D0022A85
:1043D00005D0416A41F480214162012010BD3C4872
:1043E00000F50070026842F001020260026822F4E7
:1043F0007C52026002684B6A42EA032202600A7D34
:1044000002F01F0301229A40C3699343C361A0F5E0
:104410000070CB69B3B9D0F80C329343C0F80C32BA
:104420008C894B6864F31F434C6900EBC404C4F8E7
:1044300040320C890B6864F31F434C6900EBC404E1
:10444000C4F84432CB69012B16D1D0F80C32134397
:10445000C0F80C320C884B6864F31F434C6900EBC6
:10446000C404C4F840320C89CB6864F31F434C6920
:1044700000EBC404C4F844328B697BB1D0F8043239
:104480001343C0F804320B6973B1D0F814321343EC
:10449000C0F81432096A01290CD010E0D0F80432B7
:1044A0009343C0F80432EEE7D0F814329343C0F8D7
:1044B0001432EFE7D0F81C121143C0F81C12D0F8E8
:1044C000001221F00101C0F80012002010BD000010
:1044D00000640040704730B590F82040012C07D0B0
:1044E000022C05D0416A41F480214162012030BD97
:1044F00021B104682469A4075ED003E00468E4687D
:10450000A40753D04FF4D874056804EB01142D5957
:1045100005F004059560002D54D005682D59ED086F
:10452000556005682C59C4F34004D4604FF4DA7424
:10453000056804EB01142D5905F00F051561056898
:104540002D59C5F30725956105682C59240C546134
:104550004FF4DC72046802EB0112A4581C7004686A
:10456000A458240A5C700468A458240C9C70046845
:10457000A258120EDA704FF4DE72046802EB0112D8
:10458000A4581C710468A458240A5C710468A458D7
:10459000240C9C710468A258120EDA71B9B100683B
:1045A000016941F020010161002030BD416A41F400
:1045B00000114162012030BD416A41F400114162A5
:1045C000012030BD05682D596D0D1560A9E7006803
:1045D000C16841F02001C160E6E72DE9F05F0546C2
:1045E000002428684669D0F804908768D0F80CA0A9
:1045F000D0F810B0D0F81880F10748D0F90714D0DF
:1046000001218160B80703D5284600F0EFFA0CE0DD
:10461000780702D54FF4006407E0380702D54FF45D
:10462000805402E0284600F0E0FAF80516D5296823
:104630004FF480708860B80503D5284600F0D8FA9A
:104640000CE0780502D544F4005407E0380502D5A3
:1046500044F4804402E0284600F0C9FAF80316D575
:1046600029684FF480308860B80303D5284600F0ED
:10467000C1FA0CE0780302D544F4004407E03803A3
:1046800002D544F4803402E0284600F0B2FA300744
:1046900007D55FEACA6004D544F400742968102085
:1046A000C86070074FF0080707D55FEA0A7004D5A5
:1046B0002868C760284600F0B7F9B00706D5286813
:1046C000C068800702D0284600F0B0F9700607D510
:1046D0005FEACB6004D544F4806429681020086147
:1046E000B00607D55FEA0B7004D528680761284635
:1046F00000F04CFAF00606D528680069800702D061
:10470000284600F044FAB00308D55FEAC96005D531
:10471000296810204860284600F03AFAF00307D5CF
:104720005FEA097004D528684760284600F063FAFC
:10473000300446D55FEA497040D5F00504D55FEAFC
:10474000C87001D044F00104B00504D55FEA887058
:1047500001D544F00204700504D55FEA487001D524
:1047600044F00404300529D518F0700F26D008F065
:104770007000402815D006DC102809D020280AD067
:10478000302816D10AE050280ED0602811D10EE052
:1047900044F008040DE044F010040AE044F0200462
:1047A00007E044F0400404E044F0800401E044F4F5
:1047B00080742868816921F0700181612968042072
:1047C0004860002C05D0686A204368622846FFF7DD
:1047D00081FEBDE8F09F70B50446002C03D094F82C
:1047E000200010B104E0012070BD204600F09CF8CC
:1047F0002068016821F00201016000F093FC054689
:1048000005260CE000F08EFC401B0A2807D9606AE0
:1048100040F40030606284F82060012070BD2068A0
:1048200040688007EED42068016841F00101016012
:1048300000F078FC05460CE000F074FC401B0A28F0
:1048400007D9606A40F40030606284F8206001207B
:1048500070BD20684068C007EED0207E01283FD0A0
:104860002068016821F080010160607E01283DD050
:104870002068016821F040010160A07E01283BD042
:104880002068016821F020010160E07E012839D014
:104890002068016841F010010160207F012837D0B5
:1048A0002068016821F008010160607F012835D08F
:1048B0002068016821F004010160D4E90201084385
:1048C000D4E90412114308436168491E0843216872
:1048D000C86100206062012084F82000002070BDC3
:1048E0002068016841F080010160BEE7206801682E
:1048F00041F040010160C0E72068016841F02001FB
:104900000160C2E72068016821F010010160C4E77E
:104910002068016841F008010160C6E7206801686D
:1049200041F004010160C8E72DE9F04186B004467A
:10493000142101A8FCF76AFD364B374ADFF8D08016
:1049400018682168344C03260227401C10320025C9
:104950004FF0090C414527D11860012807D1106894
:1049600040F000701060106800F000700090206847
:1049700040F008002060206800F0080000900196D8
:10498000029703950496CDF814C001A9234800F0BE
:10499000DFFA00220621142000F0BCFD142000F0F4
:1049A000ABFD06B0BDE8F081DFF874804145F8D179
:1049B000116841F080611160116801F0806100911F
:1049C0001860012807D1106840F00070106010686E
:1049D00000F000700090206840F002002060206825
:1049E00000F0020000906020019002970395049669
:1049F000CDF814C001A90B4800F0AAFA0022062144
:104A0000402000F087FD402000F076FDC9E700005F
:104A1000006400400000002030380240000C0240DA
:104A200000680040000402407047000030B589B0C3
:104A300004466B4602AA00212046FFF74CFD504871
:104A4000844236D102984F490246B0F5017F08D022
:104A500031DCA0F50070013803D0012801D0022814
:104A600027D14948521ED2B2027002EB820301EBF9
:104A7000430031F8134004819DF801409DF8005037
:104A800044EA052421F813409DF803109DF80230F4
:104A900041EA032141809DF805109DF8043041EA68
:104AA000032181809DF806108171521CD0B20AF05A
:104AB0004BF909B030BDA0F50070053822D00128AF
:104AC0003FD00C28F5D19DF800009DF8011040EA78
:104AD00001212D481A3001809DF802109DF8032015
:104AE00041EA022141809DF804109DF8052041EA29
:104AF000022181809DF806109DF8072041EA0221DD
:104B0000C180D6E7088D08869DF801009DF8002039
:104B100040EA022008859DF803009DF8022040EA43
:104B2000022048859DF805009DF8042040EA0220F7
:104B300088859DF8060081F82E0005200AF004F90A
:104B4000B7E7488E48879DF801009DF8002040EAAD
:104B5000022048869DF803009DF8022040EA0220CA
:104B600088869DF805009DF8042040EA0220C8864A
:104B70009DF8060081F8380006200AF0E5F898E76D
:104B8000A806002084950020F0020020704770479E
:104B9000704770B5044694F82000012805D0606A7B
:104BA00040F400206062012070BD022084F82000E3
:104BB0002068016821F00101016000F0B3FA0546A8
:104BC0000DE000F0AFFA401B0A2808D9606A40F4F3
:104BD00000306062052084F82000012070BD20684C
:104BE0004068C007EDD1606270BD70477047704784
:104BF000704770477047704710B50446002C02D0CC
:104C0000607910B106E0012010BD0020207120461F
:104C100000F006F80220607101206071002010BDD4
:104C200008B500680649884208D10648016841F481
:104C300080510160006800F48050009008BD0000C1
:104C4000003002403038024090F83510022903D07D
:104C50008021416501207047052180F835100068EA
:104C6000016821F001010160002070472DE9F8433F
:104C700004464FF00009CDF800906F484FF41651EC
:104C80000068B0FBF1F7A56D2E6894F85C0008226F
:104C900002FA00F1314210D02068016849070CD5B2
:104CA000016821F00401016094F85C0002FA00F14F
:104CB000A960606D40F00100606594F85C104FF0F1
:104CC000010808FA01F0304208D021684969090654
:104CD00004D5A860606D40F00200606594F85C1037
:104CE00004208840304208D021680968890704D52B
:104CF000A860606D40F00400606594F85C101020BE
:104D00008840304220D02168096809071CD5A86076
:104D10002068016849030CD50068000304D4216CA5
:104D200091B1204688470FE0A16C69B120468847C1
:104D30000AE00168C90503D4016821F00801016097
:104D4000216C09B12046884794F85C1020208840E7
:104D500030424CD021680968C90648D5A86094F84B
:104D6000350005280BD020680168490330D500685C
:104D7000000328D4616C51B32046884737E020688F
:104D8000016821F0160101602068416921F080016D
:104D90004161206C08B9A06C20B12068016821F045
:104DA0000801016094F85C103F208840A86084F8F6
:104DB000349084F83580216D00293BD001B0204625
:104DC000BDE8F0430847E16B09B1204688470EE093
:104DD0000168C90507D4016821F01001016084F859
:104DE000349084F83580E16B09B120468847606DC6
:104DF00000281FD0606DC00714D0052084F835004E
:104E00002068016821F0010101600098401C0090B9
:104E1000B84203D820680068C007F6D184F83490FF
:104E200084F83580E16C002904D001B02046BDE84B
:104E3000F0430847BDE8F883A80000202DE9F041C1
:104E4000044600F06FF905465CB1002684F8346032
:104E5000022084F835002068016821F0010101601A
:104E60000DE00120BDE8F08100F05CF9401B052851
:104E700005D920206065032084F83500F2E720681A
:104E80000068C007F0D121680A6820480240D4E9D0
:104E900001031843D4E903352B43184363691843CE
:104EA000A3691843E3691843236A18431043626AED
:104EB000042A03D1D4E90B231A4310430860206865
:104EC000406920F00700656A294605430127042947
:104ED0000DD1A06A0543E06A48B12046FEF7F4FD13
:104EE00028B14020606584F835700120BAE7206859
:104EF00045612046FEF7D2FD94F85C203F219140A9
:104F00008160666584F835700020ABE73F8010F063
:104F100070B5044600F006F90546601C02D004484E
:104F20000078044400F0FEF8401BA042FAD370BDA4
:104F30009C0000207047000010B504490A68024236
:104F400002D00860FFF7F6FF10BD0000143C0140DE
:104F50002DE9F84F0022DFF89091DFF88C8109F1FC
:104F600008094FF0010E4FF00F0C09F1040A0EFA78
:104F700002F60B683340B34271D14C68022C01D069
:104F8000122C11D1D40800EB84073D6A5407E40EBB
:104F90000CFA04FB25EA0B05D1F810B00BFA04FB60
:104FA0004BEA050BC7F820B0076854000325A5405D
:104FB000AF4391F804B00BF0030B0BFA04FB4BEA80
:104FC000070BC0F800B04F68012F05D0022F03D0A7
:104FD000112F01D0122F11D18768AF43D1F80CB037
:104FE0000BFA04FB4BEA070BC0F808B04768B7435D
:104FF0000E79C6F3001696403E434660C668AE433F
:105000008D68A5403543C5604C68E40065D5374CD4
:10501000256845F480452560246804F480440094A4
:10502000334C22F003052544D5F808789407260F61
:105030000CFA06F4A7432F4CA04201D1002424E02F
:105040002D4CA04201D101241FE02C4CA04201D1E3
:1050500002241AE02A4CA04202D1032415E03CE0CD
:10506000284CA04201D104240FE0274CA04201D1DA
:1050700005240AE0254CA04201D1062405E0244C79
:10508000A04201D1072400E00824B4403C43C5F805
:105090000848D8F800409C434D68ED0300D51C43F8
:1050A000C8F80040104D2D1D2C689C434E68B60377
:1050B00000D51C432C60D9F800409C434D68ED029C
:1050C00000D51C43C9F80040DAF800409C434D6805
:1050D000AD0200D51C43CAF80040521C102AFFF450
:1050E00046AFBDE8F88F0000003C01404438024064
:1050F000003001400000024000040240000802406D
:10510000000C02400010024000140240001802404F
:10511000001C0240002A01D08161704709048161AE
:105120007047000001488068704700009C00002024
:1051300070B50446002C04D094F83D00002510B151
:1051400006E0012070BD84F83C50204600F0B2F823
:10515000242084F83D002068016821F001010160ED
:1051600000F0C0FF4F4B6168994203D84E49884216
:1051700003D304E04D49884201D2012070BD4C495F
:10518000B0FBF1F12268566826F03F060E435660E8
:1051900062689A4201D8491C07E04FF49672514365
:1051A0004FF47A72B1FBF2F1491C2268166A26F0BC
:1051B0003F06314311626168994210D84900401E90
:1051C000B0FBF1F2521CC2F30B02042A01D20420FC
:1051D00022E0B0FBF1F0401CC0F30B001CE0A26821
:1051E000F2B301EBC10303EB0116431EB3FBF6F36D
:1051F0005B1C43F480431B0549D092B301EBC10211
:1052000002EB0111401EB0FBF1F0401CC0F30B009B
:1052100040F4804040F400402168CA694CF6FF73B6
:105220009A431043C861D4E907100143206802681B
:1052300022F0C00211430160D4E903010143206858
:10524000826848F2FF339A4311438160D4E9051024
:1052500001432068C26822F0FF021143C16001E0EF
:105260000EE016E02068016841F00101016025644C
:10527000202084F83D00256384F83E50002070BD56
:1052800001EB4106431EB3FBF6F35B1CB3E70120C1
:10529000C2E701EB4101401EB0FBF1F0401CC0F33E
:1052A0000B00B7E7A086010080841E0000093D00C6
:1052B00040420F002DE9F04786B00646142101A8B0
:1052C000FCF7A4F8534C524A306800255149032793
:1052D00010344FF012084FF001094FF0040A9042C9
:1052E0001FD1086840F002000860086800F0020062
:1052F000009038020190CDF80880CDF80C9004970A
:10530000CDF814A001A94448FFF722FE206840F41C
:1053100000102060206800F40010009006B0BDE886
:10532000F0873E4A90423CD1086840F02000086077
:10533000086800F0200000900197CDF80880CDF8B3
:105340000C900497CDF814A001A93548FFF700FE92
:10535000206840F480002060206800F48000009005
:10536000314C304820604FF0606060604020A060A9
:10537000E560000120616561A561E561C001206211
:1053800065622046FFF75AFD08B1FEF75FFD7463C2
:10539000A6632548A8380068416841F4006141606F
:1053A000BCE7224A9042B9D1086840F00400086086
:1053B000086800F004000090086840F001000860F0
:1053C000086800F00100009050150190CDF80880A9
:1053D000CDF80C900497CDF814A001A91448FFF75C
:1053E000B7FD4FF480700190CDF80880CDF80C9097
:1053F0000497CDF814A001A90E48FFF7A9FD206875
:1054000040F400002060206800F40000009085E770
:105410000054004030380240000402400058004070
:1054200000140240B86002409C0E0020005C004066
:1054300000080240000002400248816802781144DE
:10544000816070479C00002010B50B48016841F452
:1054500000710160016841F480610160016841F4FC
:1054600080710160032000F075F80F2000F006F84D
:1054700000F026F8002010BD003C024070B5044644
:105480000D4D4FF47A712878B1FBF0F00B490968A3
:10549000B1FBF0F001F0D6FA08B1012070BD102C7C
:1054A00007D200222146501E00F034F86C60002024
:1054B00070BD012070BD00009C000020A8000020ED
:1054C00082B00C48016841F480410160006800F43A
:1054D000804001900748001F016841F08051016041
:1054E000006800F08050019000220F21901E02B051
:1054F00000F010B844380240002809DB00F01F0219
:10550000012191404009800000F1E020C0F8001125
:1055100070470000F0B40D460D4B1B68C3F3022327
:10552000C3F10704042C00D90424191D072901D252
:10553000002300E0DB1E012606FA04F1491E294083
:1055400099409E40761E16403143F0BC07F091BE54
:105550000CED00E000F00701054A10684FF6FF036C
:10556000184040EA012003490843106070470000DA
:105570000CED00E00000FA05704700684162002071
:10558000704770B50368586A002907D09C6A00EB21
:10559000144400204FF48275491E0AE040EA02409C
:1055A00098620DE005EB80069E5904EB1644401C02
:1055B000C0B28842F6D305EB810144EA024058505C
:1055C000002070BDD0F8040406F0EBBDC1EBC102B1
:1055D00000EB8202D0F80404926C06F034BDC1EBFB
:1055E000C10200EB8202D0F80404D2F8082206F0CF
:1055F00095BDD0F8040406F0D6BD70B504460B0680
:1056000001F00F00C0EBC00104EB81014FF001027B
:105610004FF0000502D53C314A7002E001F5FE7101
:105620004D70087094F8BC03012808D084F8BC239E
:10563000206807F097F984F8BC53002070BD022061
:1056400070BD70B5044601F00F006268904201D948
:10565000012070BD0B0601F00F01C1EBC10104EB8D
:1056600081014FF001024FF0000502D53C314A7034
:1056700002E001F5FE714D708D70087094F8BC0366
:10568000012808D084F8BC23206807F041FB84F887
:10569000BC53002070BD022070BD01F00F01C1EBB2
:1056A000C10100EB8100D0F8140270472DE9F041F0
:1056B00004460F0601F00F00C0EBC00104EB8101AE
:1056C0004FF001064FF0000502D53C314E7002E06C
:1056D00001F5FE714D7008708A60CB704A7802B196
:1056E000C880022B00D10D7194F8BC03012809D0A9
:1056F00084F8BC63206807F07DF8284684F8BC5322
:10570000BDE8F0810220FBE770B50D4605F00F04FF
:10571000C4EBC40100EB810101F5FE71CA604B616D
:1057200000238B614B700C700369012B00D10A615F
:105730002A0705D0027C006807F042FB002070BDFC
:10574000027C006807F030FAF8E770B504460D46B1
:10575000616805F00F00884201D9012070BD29065B
:105760004FF000064FF0010206D5C0EBC00104EB7C
:1057700081013C314A7006E0C5EBC50104EB8101B3
:1057800001F5FE714E708A70087094F8BC03012810
:1057900007D084F8BC23206807F0E6FA280702D077
:1057A00007E0022070BD217C04F57172206807F0CB
:1057B00085FA84F8BC63002070BD70B50D4605F015
:1057C0000F04C4EBC40100EB81013C31CA604B61A2
:1057D00000238B6101234B700C700369012B00D1F6
:1057E0000A612A0705D0027C006807F0E9FA002068
:1057F00070BD027C006807F0D7F9F8E72DE9F84F93
:1058000004462568284607F00DFC00287ED1206854
:1058100007F034FC002879D0206807F02FFC8007BF
:1058200004D52068416901F002014161206807F058
:1058300025FC010304F571704FF001084FF00809D1
:105840004FF0100B009044D50026206807F0F5FBC0
:1058500082463BE05FEACA7035D0F1B2206807F0BB
:1058600005FC0746F80707D005EB4610C0F8088B83
:105870003146204604F0F0F9380707D53146204676
:1058800004F0B8F905EB4610C0F8089BF80603D5FC
:1058900005EB4610C0F808BBB8060CD520690128F6
:1058A00004D120680121009A07F008FA05EB4610A0
:1058B0002021C0F8081BB80405D505EB46104FF4AD
:1058C0000051C0F8081B761C4FEA5A0ABAF1000FC3
:1058D000C0D1206807F0D2FB40035ED5206807F0F6
:1058E000A5FB8246002655E05FEACA704FD0F1B2B0
:1058F000206807F0A9FB0746F80728D006F00F013B
:1059000008FA01F0D5F83418814300E06BE1C5F8DE
:10591000341805EB4610C0F808892069012807D122
:10592000C6EBC60004EB8000D0E91121114481646C
:10593000F1B22046FFF74AFE2069012807D136B9A7
:10594000206D20B920680121009A07F0B7F93807C7
:1059500003D505EB4610C0F80899F80603D505EB0A
:105960004610C0F808B9780604D505EB461040216A
:10597000C0F80819B80704D505EB46100221C0F895
:105980000819380603D53146204604F0D9F9761CAB
:105990004FEA5A0ABAF1000FA6D1206807F06EFB51
:1059A000002811DAD5F8040820F00101C5F8041820
:1059B00094F8F40301282BD0204600F0EAF920687F
:1059C000416901F000414161206807F057FB000583
:1059D0000BD5D5F80808C00702D0204600F01EFA03
:1059E0002068416901F400614161206807F046FBCD
:1059F000C0045CD5D5F8040820F00101C5F80418EE
:105A00001021206807F0ECFA00214FF67F3219E0F0
:105A1000002084F8F40300212046FFF7ADFDCEE717
:105A200005EB411000F510608260036823F4001359
:105A30000360C0F80822D0F8003223F40013C0F845
:105A40000032491C60688842EAD8D5F81C0840F04A
:105A50000111C5F81C18206B60B1D5F8840840F01E
:105A60000B01C5F88418D5F8440840F00B01C5F8BF
:105A700044180CE0D5F8140842F22B010843C5F88D
:105A80001408D5F8100840F00B01C5F81018D5F827
:105A9000000820F4FE61C5F80018217C2068009AF7
:105AA00007F00CF92068416901F4805141612068D8
:105AB00007F0E4FA800415D5206806F0DDFE2068C2
:105AC00007F0A0FAE06000F007FB0146227B2068A7
:105AD00007F016FB204600F045F92068416901F403
